:020000020000FC
:04000000BCC025C19A
:02000C0018C119
:100026000EC17CA2928A7C008884FE80800084C2F5
:10003600A2928C0042828A966200302824FE20001A
:100046004E8A8A8A72007894929260000602E212C0
:100056000E006C9292926C000C9292523C0040A858
:10006600A8A8F00000000000000070888888400002
:1000760070888890FE0070A8A8A8300000000000D4
:10008600000010A8A8A8780000000000000088FA68
:1000960080000000000000000000FE2050880000E4
:1000A600000000000000F8083008F000F81008080A
:1000B600F000708888887000F82828281000000052
:1000C60000000000F8100808100090A8A8A840003A
:1000D600087E888040000000000000003840804014
:1000E600380000000000000000000000000018A01A
:1000F600A0A078000000000000006C6C0000A0606A
:1001060000000402A2120C00FE8282FE8282FE0021
:10011600FEC2A2928A86FE00FE9292929292FE0001
:10012600FE868A92A2C2FE00404E515149493101D3
:100136007D0905000579016555552579017F000082
:100146001129450139555555090100000F30404028
:1001560020202046493303007F44454539014D514F
:1001660051513D010000417F4949417F4149556355
:10017600414100000FE50DBF02E00EBF0FEF0ABBC5
:1001860004BB00E00BBB05BB00E001BB03E005BF01
:1001960000E40BBFE0E6F0E044E000E001934A959E
:1001A60000E04013FACFE8E6F1E043E000E0019317
:1001B6004A9500E04013FACFEBE6F1E000E0019348
:1001C600019300E00FBD0BE00EBD00E00DBD0CBDC0
:1001D6000FE30BBD00EE0ABD0DE003BF00E002BF5A
:1001E60000E70CBF00E009BF65D6AAD5BDD522D46D
:1001F600F0E0E4E64FEF00E001934A9500E040139B
:10020600FACFF0E0E4E600E7019308ED019302E798
:10021600019308ED019304E7019308ED019306E7C6
:10022600019308ED019398E00BD53BD437D2B0D4B7
:100236004ED378942CD0FFCF76D402D5189531D4EE
:10024600FCD1B3D02BD2189593FD03C094FD06C004
:1002560007C002E109BF977F4AD218C08BDF16C0DC
:10026600997F00B303FD06C004FD07C005FD08C065
:1002760006FD09C002E0902B09C000E0902B06C0E5
:1002860004E0902B03C006E0902B00C0189540E0D8
:1002960050E022B70CB5209F202D0CB502270F7316
:1002A600000F402B22B70CB5209F202D0CB502273E
:1002B60006700295000F402B22B70CB5209F202D0B
:1002C6000CB502270E700295502B22B70CB5209F55
:1002D600202D0CB502270370000F000F000F502BC6
:1002E600242F207C00E0201751F000E42017A9F00D
:1002F60000E82017F9F000EC201749F1C8CF252FA8
:10030600207E2295269502E02017C2F3242F2F7314
:1003160006E020179AF328C0F1CF252F207E2295DC
:10032600269502E0201752F3242F2F7308E3201797
:100336002AF71AC0252F207E2295269503E020173E
:100346005AF7242F2F7306E0201732F30DC0252FFE
:10035600207E2295269503E02017F2F6242F2F7390
:1003660008E32017CAF600C0F1E0E6E64193519390
:1003760042D1412F512F212F362FFCD5372F06D6AC
:10038600382FBED58BD5E7D54127512B451721F6FA
:10039600362FF0D5372FFAD5382FB2D5322F7ED556
:1003A600D4D5322F7BD5D1D5089540D024D1412F35
:1003B600512F362FDFD5372FE9D5382FA1D56ED55A
:1003C600CAD54127512B9E7F451709F415C02ED05B
:1003D600F1E0E6E60191401721F40191501709F486
:1003E60006C000E009BF9ED100E1902B1EC073D36A
:1003F600CFD34DDF01E0902B19D0D1E0C4E6F0E079
:10040600E4E6008108830181098341935193488181
:10041600598100E0401709F0F4CF501709F0F1CFE9
:1004260090FD03C000E0029302930895F0E0E4E635
:1004360041915191E0D091FD01C003C092FF29C0C6
:1004460027C092FF01C023C001E0801749F002E0F7
:10045600801789F003E0801719F004E0801759F03F
:1004660000E0701719F002E0701B10C001E0800F69
:100476000EE3702F0BC000E0701719F002E0701B3E
:1004860005C001E0801B0EE3702F00C08CC035C094
:1004960033C001E0801749F002E0801731F003E035
:1004A6008017B1F004E0801799F003E0101719F0F7
:1004B600169516950CC000EC102F01E0601B00E0AD
:1004C600601709F004C004E0602F02E0800F13C03B
:1004D60003E0101719F0169516950CC000EC102FB6
:1004E60001E0601B0FEF601709F004C007E0602F02
:1004F60002E0801B00C057C023C001E0801749F00E
:1005060002E0801789F003E0801719F004E08017F5
:1005160059F00EE3701719F002E0700F10C001E0F9
:10052600800F00E0702F0BC00EE3701719F002E089
:10053600700F05C001E0801B00E0702F00C033C0C3
:1005460001E0801749F002E0801731F003E08017E0
:10055600B1F004E0801799F000EC101719F0110FB4
:10056600110F0CC003E0102F01E0600F08E06017C8
:1005760009F004C000E0602F02E0801B13C000EC0D
:10058600101719F0110F110F0CC003E0102F01E026
:10059600600F05E0601709F004C001E0602F02E07B
:1005A600801B00C000C040E050E001E0801B83706B
:1005B6008295880F880F482B7F73472B677062954B
:1005C600660F562B03E0101749F00CE0101749F0A0
:1005D60000E3101749F000EC101749F000E0502B2B
:1005E60009C008E0502B06C000E1502B03C008E10B
:1005F600502B00C00895342F307C329536953695B1
:1006060001E0300F832F342F3F73732F352F307E49
:1006160032953695632F352F387136953695369542
:10062600242F432F33E000E0401721F0330F330F20
:100636004A95F9CF422F132F089540E0F0E0E4E603
:10064600219100E0201709F003C02081201721F036
:10065600219101E0400FF4CF242FF0E0E4E62A9543
:100666004191519100E0201709F0F9CFC4DF212F05
:10067600362F80D4372F8AD4382F42D40FD46BD458
:100686002127362F77D4372F81D4382F39D4322FDC
:1006960005D45BD4322F02D458D40895F0E0E4E6B2
:1006A60041915191A8DF212F00E0701709F007C092
:1006B60001E0801709F003C000E06017B9F0362F9B
:1006C60059D4372F63D4382F1BD4E8D344D4022F00
:1006D600212B362F4FD4372F59D4382F11D4322F00
:1006E600DDD333D4322FDAD330D4DACF089535E0E0
:1006F60041D430E04BD41FD440E430E0CFD325D4EE
:100706004A9500E04013F9CF35E034D430E03ED4CA
:1007160017D440E430E0C2D318D44A9500E0401321
:10072600F9CF089565E070E083E0F0E0E4E646E0A6
:1007360006E0409F402DE40FE8D201E0700FF0E0A4
:10074600E4E640E006E0409F402DE40FDED201E003
:10075600700FF0E0E4E64CE006E0409F402DE40F29
:10076600D4D201E0700FF0E0E4E644E006E0409FFA
:10077600402DE40FCAD201E0700F01E0700F01E0D6
:10078600700FF0E0E4E64EE006E0409F402DE40FF7
:10079600BCD201E0700FF0E0E4E645E106E0409FE0
:1007A600402DE40FB2D201E0700FF0E0E4E644E041
:1007B60006E0409F402DE40FA8D201E0700FF0E064
:1007C600E4E641E106E0409F402DE40F9ED201E0C1
:1007D600700FF1E0E4E099D201E0700F01E0700FD4
:1007E60001E0700FF0E0E4E64FE006E0409F402DA8
:1007F600E40F8BD201E0700FF0E0E4E641E106E0A1
:10080600409F402DE40F81D201E0700FF0E0E4E656
:1008160044E006E0409F402DE40F77D201E0700FE0
:10082600F0E0E4E642E106E0409F402DE40F6DD2A1
:1008360001E0700FF0E0E4E642E106E0409F402D63
:10084600E40F63D201E0700F01E0700F01E0700F5A
:10085600F0E0E4E640E006E0409F402DE40F55D28C
:1008660001E0700FF0E0E4E64DE006E0409F402D29
:10087600E40F4BD201E0700FF0E0E4E648E106E059
:10088600409F402DE40F41D201E0700F01E0700F50
:1008960001E0700FF0E0E4E64AE006E0409F402DFC
:1008A600E40F33D201E0700FF0E0E4E644E006E046
:1008B600409F402DE40F29D201E0700FF0E0E4E6FE
:1008C60048E106E0409F402DE40F1FD2089565E001
:1008D60070E083E0F0E0E4E641E106E0409F402D71
:1008E600E40F13D201E0700FF0E0E4E644E006E026
:1008F600409F402DE40F09D201E0700FF0E0E4E6DE
:1009060040E006E0409F402DE40FFFD101E0700F6C
:10091600F0E0E4E643E006E0409F402DE40FF5D129
:1009260001E0700FF0E0E4E648E106E0409F402D6C
:10093600E40FEBD101E0700FF1E0E8E0E6D101E071
:10094600700F01E0700F01E0700FF0E0E4E64FE099
:1009560006E0409F402DE40FD8D101E0700FF0E093
:10096600E4E641E106E0409F402DE40FCED101E0F0
:10097600700FF0E0E4E644E006E0409F402DE40F0F
:10098600C4D101E0700FF0E0E4E642E106E0409FEA
:10099600402DE40FBAD101E0700FF0E0E4E642E149
:1009A60006E0409F402DE40FB0D101E0700F01E05A
:1009B600700F01E0700FF0E0E4E640E006E0409FD3
:1009C600402DE40FA2D101E0700FF0E0E4E64DE027
:1009D60006E0409F402DE40F98D101E0700FF0E053
:1009E600E4E648E106E0409F402DE40F8ED101E0A9
:1009F600700F01E0700F01E0700FF0E0E4E64AE0EE
:100A060006E0409F402DE40F80D101E0700FF0E03A
:100A1600E4E644E006E0409F402DE40F76D101E095
:100A2600700FF0E0E4E648E106E0409F402DE40F59
:100A36006CD1089560E070E081E0F1E0EEE240E024
:100A46000CE0409F402DE40F60D1F1E0EEE241E082
:100A56000CE0409F402DE40F58D1F1E0EEE242E079
:100A66000CE0409F402DE40F50D1F1E0EEE243E070
:100A76000CE0409F402DE40F48D160E078E282E030
:100A8600F1E0EEE540E00EE0409F402DE40F3DD161
:100A9600F1E0EEE541E00EE0409F402DE40F35D158
:100AA600089567E079E384E0F1E0EEE0D1E0CBE69B
:100AB6002881422F08E0409F402DE40F26D1422F87
:100AC60001E0400F04E0401709F001C040E0D1E02A
:100AD600CBE648830895F1E0E8E6428101E0400F65
:100AE60050E00AE0401709F002C040E051E04283BE
:100AF600418100E0501301E0400F50E00AE040174A
:100B060009F002C040E051E04183408100E050130B
:100B160001E0400F50E00AE0401709F002C040E053
:100B260051E040830895F0E0E0E6438101E0400FA4
:100B360050E00AE0401709F002C040E051E043836C
:100B4600428100E0501301E0400F50E006E04017FC
:100B560009F002C040E051E04283418100E05013B9
:100B660001E0400F50E00AE0401709F002C040E003
:100B760051E04183488100E0501301E0400F50E00E
:100B86000AE0401709F002C040E051E040830895B2
:100B960066E070E083E0F0E0E4E642E106E0409FD4
:100BA600402DE40FB2D001E0700FF0E0E4E642E041
:100BB60006E0409F402DE40FA8D001E0700FF0E062
:100BC600E4E64EE006E0409F402DE40F9ED001E0B3
:100BD600700FF0E0E4E641E106E0409F402DE40FAF
:100BE60094D001E0700FF0E0E4E644E006E0409FB8
:100BF600402DE40F8AD001E0700F01E0700F01E094
:100C0600700FD1E0C8E6F0E0E8E2488106E0409FD8
:100C1600402DE40F7AD001E0700FF0E0E8E2498160
:100C260006E0409F402DE40F70D001E0700FF0E029
:100C3600E8E24A8106E0409F402DE40F66D0089521
:100C460067E070E083E0F0E0E4E643E106E0409F21
:100C5600402DE40F5AD001E0700FF0E0E4E648E0E2
:100C660006E0409F402DE40F50D001E0700FF0E009
:100C7600E4E64CE006E0409F402DE40F46D001E05C
:100C8600700FF0E0E4E644E006E0409F402DE40FFC
:100C96003CD001E0700F01E0700F01E0700FD0E072
:100CA600C0E6F0E0E8E2488106E0409F402DE40F10
:100CB6002CD001E0700FF0E0E8E2498106E0409FA9
:100CC600402DE40F22D001E0700F01E0700F01E02B
:100CD600700FF1E0E0E019D001E0700F01E0700F55
:100CE60001E0700FF0E0E8E24A8106E0409F402D07
:100CF600E40F0BD001E0700FF0E0E8E24B8106E074
:100D0600409F402DE40F01D00895362F33D1372F61
:100D16003DD1382FF5D000E4701709F007C001E087
:100D2600800F70E0372F32D1382FEAD0359100E0AE
:100D3600301729F0B3D009D101E0700FECCF089538
:100D460030E018D130E022D148E0342F13D150E4FE
:100D560030E0A4D0FAD05A9500E05013F9CF4A9566
:100D660000E04013F2CF089531E004D130E00ED117
:100D7600D8D03FEF93D0E9D03FEF90D0E6D04CE704
:100D860033E08CD0E2D04A9500E04013F9CF41E041
:100D9600342FF0D030E0FAD0C4D03FEF7FD0D5D09A
:100DA6003FEF7CD0D2D0439508E04013F1CF31E03D
:100DB600E1D030E0EBD0BAD040E433E06FD0C5D01C
:100DC6004A9500E04013F9CF3EE3E0D0AFD03FEFC5
:100DD60065D0BBD03FEF62D0B8D041E0342FCAD047
:100DE6003EE3D4D0A3D03FEF59D0AFD03FEF56D09B
:100DF600ACD0439508E04013F1CF30E0BBD030E0F3
:100E0600C5D099D040E0342FB5D030E0BFD093D0D4
:100E16003FEF44D09AD03FEF41D097D0439504E0BE
:100E26004013F1CF34E0A6D030E0B0D084D03FEF0D
:100E360035D08BD03FEF32D088D04EE330EC2ED079
:100E460084D04A9500E04013F9CF30E093D030E0EB
:100E56009DD076D040E0342F8DD03EE397D070D031
:100E66003FEF1CD072D03FEF19D06FD0439504E00E
:100E76004013F1CF34E07ED030E088D061D040E43A
:100E860030EC0CD062D04A9502E04013F9CF3FEF28
:100E960005D05BD03FEF02D058D0089500E00ABBE2
:100EA600AD9AAC98AE9AAE9803B307FDFBCF0FEFA1
:100EB6000ABB0895A89AA99AAA9AAB9AAC98AD9833
:100EC60018D000EC0BBBAE9AAE9813D000E40BBB67
:100ED600AE9AAE980ED008EB0BBBAE9AAE9809D080
:100EE6000FE30BBBAE9AAE98A898A998AA98AB98B0
:100EF60008954CE150E05A95F1F74A95D9F70895CF
:100F0600A89A01E00313A898A99A02E00313A998E6
:100F1600AA9A03E00313AA98AB9A04E00313AB98CA
:100F26000895A89AA998AA98AB980895A898A99AF6
:100F3600AA98AB980895A898A998AA9AAB980895E4
:100F4600A898A998AA98AB9A0895AC9AAD983BBB75
:100F5600AE9AAE98089500E00ABBAC9AAD9AAE9AE6
:100F6600AE98AC98AC9AAE9AAE9819B3AD980FEF0E
:100F76000ABB0895A89AA99AAA9AAB9AAC9808EBC4
:100F8600300F3BBBAE9AAE98AC9A0895A89AA99A30
:100F9600AA9AAB9AAC9800E4300F3BBBAE9AAE98D7
:040FA600AC9A089564
:00000001FF
